:04000000FBEF00F022
:100008005E829EA20AEF00F00CEF00F0A1EF00F074
:100018009DA211EF00F013EF00F0A1EF00F0000136
:10002800D890F03782B01BEF00F01EEF00F0010E01
:100038001FEF00F0000EF013D890F13780B827EFCB
:1000480000F02AEF00F0010E2BEF00F0000EF11384
:10005800D890F23780B633EF00F036EF00F0010E9B
:1000680037EF00F0000EF213D890F33780B43FEF6B
:1000780000F042EF00F0010E43EF00F0000EF31322
:100088007F0EF019D8A44BEF00F04DEF00F051EFC0
:1000980000F0010EF46F5BEF00F0F051D8B457EFA9
:1000A80000F059EF00F05BEF00F0000EF46F7F0EE8
:1000B800F119D8A462EF00F064EF00F068EF00F0E7
:1000C800010EF56F72EF00F0F151D8B46EEF00F049
:1000D80070EF00F072EF00F0000EF56F7F0EF2196E
:1000E800D8A479EF00F07BEF00F07FEF00F0010E6D
:1000F800F66F89EF00F0F251D8B485EF00F087EF82
:1001080000F089EF00F0000EF66F7F0EF319D8A407
:1001180090EF00F092EF00F096EF00F0010EF76F0D
:10012800A0EF00F0F351D8B49CEF00F09EEF00F080
:10013800A0EF00F0000EF76F9E92A0A2A6EF00F0CD
:10014800A8EF00F0B6EF00F0A1A2ADEF00F0AFEF1E
:1001580000F0B6EF00F08A7A0001E71DB26EE81DE4
:10016800B36EA1927EA0BBEF00F0BDEF00F0F9EFF7
:1001780000F07DA0C2EF00F0C4EF00F0F9EF00F04E
:100188005C500001E95DEA51800A016E5D50800A09
:100198000158D8B0D2EF00F0D4EF00F0F3EF00F040
:1001A800020EEC25EC6F000EED21ED6FEC51EE5DCB
:1001B800EF51800A016EED51800A0158D8B0E7EF7F
:1001C80000F0E9EF00F0EDEF00F0000EED6F000E2B
:1001D800EC6F000E5D6E000E5C6E010EEB6F5C4AFC
:1001E8005D2A000E0F01536F7E905E92110074EF2E
:1001F8001EF0000E0001926F6AC093F06BC094F07D
:100208006CC095F06DC096F096BF0FEF01F00DEF42
:1002180001F023EF01F0010E926F93C002F094C039
:1002280003F095C004F096C005F08EEC21F002C0F2
:1002380093F003C094F004C095F005C096F0000E4A
:100248000001986F000E976F58C082F059C083F074
:100258009251D8B432EF01F034EF01F048EF01F0D9
:100268009251D8A43AEF01F03CEF01F042EF01F0CF
:10027800000E786F2B0E776F46EF01F0000E786F47
:100288002D0E776F77C092F093C002F094C003F000
:1002980095C004F096C005F07FEC1AF00204031034
:1002A800D8A459EF01F05BEF01F08EEF01F00001E7
:1002B8009251D8B462EF01F064EF01F06DEF01F0F4
:1002C80092C073F18207D8A08307000E986F010EC1
:1002D800976F730E9725026E010E9821036EF70E25
:1002E800046EFF0E056E4EEC21F00001FD0E822714
:1002F800FF0E832368C013F069C014F0730E156EE7
:10030800010E166E82C017F083C018F037EC1EF08D
:10031800F9EF05F093C002F094C003F095C004F023
:1003280096C005F07FEC1AF002500310D8A49FEF96
:1003380001F0A1EF01F0C1EF01F000019251D8B432
:10034800A8EF01F0AAEF01F0B3EF01F092C073F14A
:100358008207D8A08307000E986F010E976F730E5F
:100368009725026E010E9821036EFB0E046EFF0E98
:10037800056E4EEC21F079EF01F0000E0001996F47
:10038800000E9A6F800E9B6F3F0E9C6F000E816F60
:10039800000E806F93C002F094C003F095C004F083
:1003A80096C005F0000E066E000E076E000E086E71
:1003B800000E096EA3EC1DF0D8B0E5EF01F0E7EFF1
:1003C80001F0C6EF02F0F4EF01F084C099F085C0A7
:1003D8009AF086C09BF087C09CF00001804B812B6F
:1003E80099C029F09AC02AF09BC02BF09CC02CF031
:1003F800000E2D6E000E2E6E200E2F6E410E306EEA
:100408005AEC08F029C084F02AC085F02BC086F089
:100418002CC087F000018451935D026E8551945978
:10042800036E86519559046E87519659056EF7ECFF
:100438001FF005BE2BEF02F005500410031009E170
:10044800020E025CD8A02BEF02F02DEF02F0E9EFCC
:1004580001F084C042F085C043F086C044F087C0F4
:1004680045F093C046F094C047F095C048F096C058
:1004780049F07DEC19F0D8A044EF02F046EF02F005
:10048800E9EF01F000019951935D026E9A51945978
:10049800036E9B519559046E9C519659056EF7EC65
:1004A8001FF005BE65EF02F005500410031007E1C8
:1004B800020E025CD8B063EF02F065EF02F0ADEF18
:1004C80002F099C093F09AC094F09BC095F09CC03C
:1004D80096F0C6EF02F099C010F09AC011F09BC0D8
:1004E80012F09CC013F0000E146E000E156E200E54
:1004F800166E410E176E6FEC0AF010C099F011C01D
:100508009AF012C09BF013C09CF000018007D8A09D
:1005180081079951935D026E9A519459036E9B51CC
:100528009559046E9C519659056EF7EC1FF005BE5F
:10053800ABEF02F005500410031007E1020E025C55
:10054800D8B0A9EF02F0ABEF02F0ADEF02F065EF23
:1005580002F093C042F094C043F095C044F096C0B6
:1005680045F099C046F09AC047F09BC048F09CC03F
:1005780049F07DEC19F0D8A0C4EF02F0C6EF02F004
:100588006FEF02F06EC07AF07AC07BF05BBECFEFFF
:1005980002F0D1EF02F0D7EF02F05AC073F05BC05F
:1005A80074F0DCEF02F0000E0001746F060E736F3A
:1005B80073C07EF074C07FF000017E4B7F2B660E07
:1005C8007B19D8A4EAEF02F0ECEF02F00CEF03F08D
:1005D80081BFF3EF02F0F1EF02F0FFEF02F0000E3F
:1005E800996F000E9A6F800E9B6F3F0E9C6F000EE6
:1005F800816F000E806F670E7A19D8B406EF03F08A
:1006080008EF03F00CEF03F080517E2781517F2320
:10061800000E896F000E886F93C08AF094C08BF02B
:1006280095C08CF096C08DF099C084F09AC085F082
:100638009BC086F09CC087F09DEF03F08AC010F045
:100648008BC011F08CC012F08DC013F099C014F05B
:100658009AC015F09BC016F09CC017F06FEC0AF01A
:1006680010C029F011C02AF012C02BF013C02CF0D2
:10067800E6EC11F029C08EF02AC08FF02BC090F064
:100688002CC091F08EC060F08FC061F090C062F015
:1006980091C063F0F9EC18F060C07CF061C07DF0A7
:1006A8008AC060F08BC061F08CC062F08DC063F0CE
:1006B8008EC02DF08FC02EF090C02FF091C030F07A
:1006C80099C029F09AC02AF09BC02BF09CC02CF04E
:1006D8005AEC08F029C064F02AC065F02BC066F017
:1006E8002CC067F0C7EC20F060C08AF061C08BF0C6
:1006F80062C08CF063C08DF099C010F09AC011F000
:100708009BC012F09CC013F0000E146E000E156E04
:10071800200E166E410E176E6FEC0AF010C099F09D
:1007280011C09AF012C09BF013C09CF00001884BD6
:10073800892B7E51885D8951800A6F6F7F51800AAD
:100748006F59D8A0AAEF03F0ACEF03F022EF03F043
:1007580099C029F09AC02AF09BC02BF09CC02CF0BD
:10076800000E2D6E000E2E6EA00E2F6E400E306EF7
:100778005AEC08F029C08EF02AC08FF02BC090F0F8
:100788002CC091F08AC042F08BC043F08CC044F07A
:100798008DC045F08EC046F08FC047F090C048F03D
:1007A80091C049F07DEC19F0D8B0DDEF03F0DFEF30
:1007B80003F0EAEF03F0000E00018E6F000E8F6F5A
:1007C800000E906F000E916F13EF04F08AC002F0D4
:1007D8008BC003F08CC004F08DC005F08EC006F00D
:1007E8008FC007F090C008F091C009F0A3EC1DF08D
:1007F800D8A001EF04F003EF04F013EF04F00001B8
:100808007CB109EF04F00BEF04F013EF04F0000ED5
:100818008E6F000E8F6F000E906F000E916F93C059
:1008280042F094C043F095C044F096C045F08EC0A5
:1008380046F08FC047F090C048F091C049F0FAECFC
:1008480005F042C08AF043C08BF044C08CF045C02C
:100858008DF08AC042F08BC043F08CC044F08DC04C
:1008680045F0000E2D6E000E2E6E200E2F6E410EDE
:10087800306E84C029F085C02AF086C02BF087C06E
:100888002CF05AEC08F029C046F02AC047F02BC0DB
:1008980048F02CC049F07DEC19F0D8A056EF04F0D0
:1008A80058EF04F081EF04F00001804B812B84C0E5
:1008B80029F085C02AF086C02BF087C02CF0000EE6
:1008C8002D6E000E2E6E200E2F6E410E306E5AECDD
:1008D80008F029C084F02AC085F02BC086F02CC00F
:1008E80087F0660E00017B19D8A47DEF04F07FEF36
:1008F80004F081EF04F07E4B7F2B84C099F085C013
:100908009AF086C09BF087C09CF080C071F081C0CF
:1009180072F0000E0001796F000E766F000E756F91
:10092800000E896F000E886F7FEF05F08AC010F007
:100938008BC011F08CC012F08DC013F099C014F068
:100948009AC015F09BC016F09CC017F06FEC0AF027
:1009580010C029F011C02AF012C02BF013C02CF0DF
:10096800E6EC11F029C08EF02AC08FF02BC090F071
:100978002CC091F08EC060F08FC061F090C062F022
:1009880091C063F0F9EC18F0000161BFD7EF04F0F3
:10099800615107E10A0E605DD8B0D5EF04F0D7EFDA
:1009A80004F0E7EF04F08EC060F08FC061F090C0F3
:1009B80062F091C063F0F9EC18F060C07CF061C09F
:1009C8007DF0EBEF04F0000E7D6F090E7C6F0001E7
:1009D8007951D8A4F2EF04F0F4EF04F01CEF05F01D
:1009E80072BFFBEF04F0F9EF04F01CEF05F0730E93
:1009F8009725D96E010E9821DA6E2E0EDF6E974B71
:100A0800982B8207D8A08307010E796F1CEF05F099
:100A1800730E9725D96E010E9821DA6E300EDF6EAF
:100A2800974B982B8207D8A083077507D8A076071D
:100A380075517611D8A423EF05F025EF05F00CEFDA
:100A480005F0730E9725D96E010E9821DA6E7C5148
:100A5800300FDF6E974B982B8207D8A083078AC088
:100A680060F08BC061F08CC062F08DC063F08EC006
:100A78002DF08FC02EF090C02FF091C030F099C0AB
:100A880029F09AC02AF09BC02BF09CC02CF05AEC9D
:100A980008F029C064F02AC065F02BC066F02CC0AD
:100AA80067F0C7EC20F060C08AF061C08BF062C0CC
:100AB8008CF063C08DF099C010F09AC011F09BC003
:100AC80012F09CC013F0000E146E000E156E200E6E
:100AD800166E410E176E6FEC0AF010C099F011C037
:100AE8009AF012C09BF013C09CF000017107D8A0C7
:100AF8007207884B892B7E51885D8951800A6F6FF8
:100B08007F51800A6F59D8B08CEF05F08EEF05F051
:100B18009CEF05F098BF9AEF05F0985109E14B0E4C
:100B2800975DD8A09AEF05F09CEF05F09AEF04F0D6
:100B3800000E896F4F0E886F730E8825D96E010ECF
:100B48008921DA6EDF6A730E6F6F010E706F97512D
:100B58006F5F9851705B88516F25026E89517021C3
:100B6800036E730E046E010E056E97C006F098C0F2
:100B780007F07BEC20F000019751885D976F985142
:100B88008959986F9251D8A4CCEF05F0CFEF05F0B2
:100B9800010ED0EF05F0000E886F896B9251D8B422
:100BA800D8EF05F0DAEF05F0E5EF05F09707D8A0E4
:100BB8009807730E9725D96E010E9821DA6E92C0A8
:100BC800DFFF8851825F8951835B68C013F069C079
:100BD80014F0730E9725156E010E9821166E82C0BB
:100BE80017F083C018F037EC1EF012004550800B48
:100BF8004E6E45504524506E44AE05EF06F007EFA3
:100C080006F008EF06F050805050D8B40EEF06F00A
:100C180010EF06F025EF06F05028D8A416EF06F0DE
:100C280018EF06F020EF06F0000E426E000E436E3D
:100C3800000E446E000E456E448E000E456E2DEF7C
:100C480006F0000E426E000E436E000E446E000E5B
:100C5800456E4950800B4F6E4E504F18D8B437EF41
:100C680006F039EF06F03AEF06F04E8C4950492469
:100C78004F6E48AE42EF06F044EF06F045EF06F03F
:100C88004F804F50D8B44BEF06F04DEF06F062EFAF
:100C980006F04F28D8A453EF06F055EF06F05DEFA5
:100CA80006F0000E466E000E476E000E486E000EEF
:100CB800496E488E000E496E6AEF06F0000E466EC9
:100CC800000E476E000E486E000E496E50504F5C85
:100CD800D8B071EF06F073EF06F09AEF06F04EAC5D
:100CE80078EF06F07AEF06F07CEF06F0800E4E1AE9
:100CF80050C051F04FC050F051C04FF042C051F0B9
:100D080046C042F051C046F043C051F047C043F0DE
:100D180051C047F044C051F048C044F051C048F0B9
:100D280045C051F049C045F051C049F0000E516E20
:100D380050504FC04AF04B6A4A5E000E4B5A4BBEA9
:100D4800AFEF06F04B5009E11A0E4A5CD8A0AFEF9E
:100D580006F0B1EF06F0E8EF06F0425043104410F9
:100D68004510D8A4BAEF06F0BDEF06F0010EBEEFAD
:100D780006F0000E516E000E426E000E436E000E1D
:100D8800446E000E456E4FC050F0F1EF06F051A0D2
:100D9800D0EF06F0D2EF06F0D8EF06F0D890513039
:100DA8000109516EDAEF06F0D890513242A0DFEF18
:100DB80006F0E1EF06F0E2EF06F0518E45344532D9
:100DC800443243324232502A4F50505CD8A0EFEFA1
:100DD80006F0F1EF06F0CBEF06F04EBCF6EF06F0AA
:100DE800F8EF06F038EF07F05050D8A4FEEF06F001
:100DF80000EF07F00AEF07F0000E426E000E436E98
:100E0800000E446E000E456E59EF08F0465042261B
:100E180047504322485044224950452245A017EFE5
:100E280007F019EF07F0C5EF07F051A01EEF07F024
:100E380020EF07F026EF07F0D89051300109516EE6
:100E480028EF07F0D890513242A02DEF07F02FEF8E
:100E580007F030EF07F0518E4534453244324332C3
:100E68004232502AC5EF07F04650425C475043587B
:100E7800485044584550800A4A6E4950800A4A589A
:100E8800D8B049EF07F04BEF07F076EF07F0425084
:100E9800465C4A6E435047584B6E445048584C6E17
:100EA800455049584D6EFF0E4A24426EFF0E4B20A6
:100EB800436EFF0E4C20446EFF0E4D20456E800E93
:100EC8004E1A516C5150D8A46CEF07F06EEF07F032
:100ED8007EEF07F0010E4226000E432244224522EF
:100EE8007EEF07F04650425E4750435A4850445AF6
:100EF8004950455A4250431044104510D8A487EF32
:100F080007F089EF07F0BEEF07F05150D8A48FEF34
:100F180007F091EF07F0BEEF07F0000E426E000EEB
:100F2800436E000E446E000E456E59EF08F0D890DF
:100F3800423643364436453651AEA5EF07F0A7EFA3
:100F480007F0A8EF07F0428051A0ADEF07F0AFEF30
:100F580007F0B3EF07F0D8805136B5EF07F0D89017
:100F680051365050D8B4BBEF07F0BDEF07F0BEEFD5
:100F780007F0500644AEC3EF07F0C5EF07F09BEF4C
:100F880007F0000E4F6E51AECCEF07F0CEEF07F032
:100F9800E6EF07F051C04AF07F0E4A16D8B4D7EFF3
:100FA80007F0D9EF07F0DDEF07F0010E4F6EE6EF1F
:100FB80007F042A0E2EF07F0E4EF07F0E6EF07F0F2
:100FC800D9EF07F04F50D8B4ECEF07F0EEEF07F089
:100FD80019EF08F0010E4226000E43224422452252
:100FE80045A0F9EF07F0FBEF07F019EF08F042C052
:100FF8004AF043C04BF044C04CF045C04DF04D346E
:101008004D324C324B324A324AC042F04BC043F068
:101018004CC044F04DC045F05028D8B416EF08F045
:1010280018EF08F019EF08F0502A5028D8B41FEF2D
:1010380008F021EF08F029EF08F05050D8A427EF66
:1010480008F029EF08F03BEF08F0000E426E000EA2
:10105800436E000E446E000E456E5050D8A437EF14
:1010680008F039EF08F03BEF08F0000E4E6E50A084
:1010780040EF08F042EF08F045EF08F0448E46EFE5
:1010880008F0449ED8905030456E4EAE4EEF08F0B2
:1010980050EF08F051EF08F0458E42C042F043C0CF
:1010A80043F044C044F045C045F012002C50800B7A
:1010B800356E2C502C243B6E2BAE65EF08F067EF95
:1010C80008F068EF08F03B803B50D8B46EEF08F0AA
:1010D80070EF08F083EF08F03B28D8A476EF08F00B
:1010E80078EF08F080EF08F0000E296E000E2A6EE7
:1010F800000E2B6E000E2C6E2B8E8BEF08F0000E60
:10110800296E000E2A6E000E2B6E000E2C6E3050CB
:10111800800B351A305030243A6E2FAE96EF08F017
:1011280098EF08F099EF08F03A803A50D8B49FEF5A
:1011380008F0A1EF08F0B4EF08F03A28D8A4A7EF18
:1011480008F0A9EF08F0B1EF08F0000E2D6E000EC0
:101158002E6E000E2F6E000E306E2F8EBCEF08F034
:10116800000E2D6E000E2E6E000E2F6E000E306ECD
:101178003A50D8B4C2EF08F0C4EF08F0CCEF08F04A
:101188003B50D8A4CAEF08F0CCEF08F0D6EF08F02F
:10119800000E296E000E2A6E000E2B6E000E2C6EAD
:1011A8006EEF0AF02F502902F3CF40F0F4CF41F050
:1011B8004050366E376A386A396A41503C6E3D6A2B
:1011C8003E6A3F6A2E502A02F3CF40F0F4CF41F036
:1011D80040503626000E37223822392241503C260C
:1011E800000E3D223E223F222D502B02F3CF40F02D
:1011F800F4CF41F040503626000E372238223922EB
:1012080041503C26000E3D223E223F2238C039F094
:1012180037C038F036C037F0366A2D502A02F3CF7F
:1012280040F0F4CF41F04050362641503722000EAE
:101238003822000E39222E502902F3CF40F0F4CF85
:1012480041F04050362641503722000E3822000E19
:10125800392238C039F037C038F036C037F0366A2E
:101268002D502902F3CF40F0F4CF41F040503626FC
:1012780041503722000E3822000E39222F502A0200
:10128800F3CF40F0F4CF41F040503C2641503D228E
:10129800000E3E22000E3F222E502B02F3CF40F0CC
:1012A800F4CF41F040503C2641503D22000E3E22F2
:1012B800000E3F222F502B02F3CF40F0F4CF41F025
:1012C8004050316E4150326E336A346A33C034F064
:1012D80032C033F031C032F0316A31503C263250DE
:1012E8003D2233503E2234503F2236C031F037C0C1
:1012F80032F038C033F039C034F0190E89EF09F0F4
:10130800D8903432333232323132E82E84EF09F059
:1013180031503C2632503D2233503E2234503F2239
:1013280038C039F037C038F036C037F0366A3A502E
:101338003BC031F0326A3126000E3222820E31244F
:10134800406EFF0E3220416EBFEF09F0D8903C3658
:101358003D363E363F3639AEB4EF09F0B6EF09F008
:10136800B7EF09F03C80D8903636373638363936FC
:101378004006D8A041063EAEC4EF09F0C6EF09F01A
:10138800AAEF09F0000E3A6E39AECDEF09F0CFEFB3
:1013980009F0F3EF09F0FF0E3614316EFF0E371423
:1013A800326EFF0E3814336E7F0E3914346E31509E
:1013B800321033103410D8B4E4EF09F0E6EF09F036
:1013C800EAEF09F0010E3A6EF3EF09F03CA0EFEFF7
:1013D80009F0F1EF09F0F3EF09F0E6EF09F03A5000
:1013E800D8B4F9EF09F0FBEF09F01FEF0AF0010E8E
:1013F8003C26000E3D223E223F223FA006EF0AF087
:1014080008EF0AF01FEF0AF03CC031F03DC032F09F
:101418003EC033F03FC034F03434343233323232E9
:10142800313231C03CF032C03DF033C03EF034C000
:101438003FF0404A412A41BE2AEF0AF0415008E1F4
:101448004028D8A02AEF0AF02CEF0AF036EF0AF06D
:10145800000E3C6E000E3D6E800E3E6E7F0E3F6E9F
:1014680064EF0AF041BE43EF0AF0415006E1400440
:10147800D8B041EF0AF043EF0AF04FEF0AF0000E40
:101488003C6E000E3D6E000E3E6E000E3F6E000E6E
:10149800356E64EF0AF040C03BF0FF0E3C16FF0EBD
:1014A8003D167F0E3E16000E3F163BA05EEF0AF07B
:1014B80060EF0AF061EF0AF03E8ED8903B303F6E45
:1014C80035503F123CC029F03DC02AF03EC02BF0F9
:1014D8003FC02CF012001350800B206E13501324C1
:1014E800276E12AE7AEF0AF07CEF0AF07DEF0AF071
:1014F80027802750D8B483EF0AF085EF0AF09AEFD7
:101508000AF02728D8A48BEF0AF08DEF0AF095EFA0
:101518000AF0000E106E000E116E000E126E000E14
:10152800136E128E000E136EA2EF0AF0000E106EEC
:10153800000E116E000E126E000E136E1750800B07
:10154800201A17501724286E16AEADEF0AF0AFEF29
:101558000AF0B0EF0AF028802850D8B4B6EF0AF0A5
:10156800B8EF0AF0CDEF0AF02828D8A4BEEF0AF0A9
:10157800C0EF0AF0C8EF0AF0000E146E000E156EE8
:10158800000E166E000E176E168E000E176ED5EF33
:101598000AF0000E146E000E156E000E166E000E88
:1015A800176E1450151016101710D8A4DEEF0AF095
:1015B800E0EF0AF0F8EF0AF0000E106E000E116E60
:1015C800000E126E000E136E800E12127F0E131292
:1015D8002050131210C010F011C011F012C012F0F8
:1015E80013C013F03BEF0CF02750D8A4FEEF0AF01D
:1015F80000EF0BF00AEF0BF0000E106E000E116EEC
:10160800000E126E000E136E3BEF0CF0285027C030
:1016180018F0196A185E000E195A7F0E1824216EE8
:10162800000E1920226E10C01CF011C01DF012C04F
:101638001EF013C01FF0000E106E000E116E000E8B
:10164800126E000E136E000E236E000E246E000E36
:10165800256E000E266E000E286E6BEF0BF02850DC
:10166800D8B439EF0BF03BEF0BF052EF0BF0D890FA
:101678001C361D361E361F36D890103611361236D7
:10168800133626AE4AEF0BF04CEF0BF04DEF0BF094
:101698001080D890233624362536263614501C5C04
:1016A80015501D5816501E5817501F58D8A05FEFD8
:1016B8000BF061EF0BF06AEF0BF0268C14501C5EF8
:1016C80015501D5A16501E5A17501F5A282A190EFF
:1016D800286471EF0BF073EF0BF033EF0BF01C5035
:1016E8001D101E101F10D8B47CEF0BF07EEF0BF00E
:1016F80096EF0BF0238096EF0BF0D890103611364A
:101708001236133626AE8BEF0BF08DEF0BF08EEF03
:101718000BF01080D890233624362536263621063D
:10172800D8A0220612AE9BEF0BF09DEF0BF081EFD5
:101738000BF0000E286E26AEA4EF0BF0A6EF0BF010
:10174800CAEF0BF0FF0E2314186EFF0E2414196E47
:10175800FF0E25141A6E7F0E26141B6E18501910D2
:101768001A101B10D8B4BBEF0BF0BDEF0BF0C1EF94
:101778000BF0010E286ECAEF0BF010A0C6EF0BF0AD
:10178800C8EF0BF0CAEF0BF0BDEF0BF02850D8B440
:10179800D0EF0BF0D2EF0BF0F6EF0BF0010E1026A6
:1017A800000E11221222132213A0DDEF0BF0DFEF3F
:1017B8000BF0F6EF0BF010C018F011C019F012C0C2
:1017C8001AF013C01BF01B341B321A3219321832AC
:1017D80018C010F019C011F01AC012F01BC013F095
:1017E800214A222A22BE01EF0CF0225008E12128CA
:1017F800D8A001EF0CF003EF0CF00EEF0CF0000E88
:10180800226E2168000E106E000E116E000E126E10
:10181800000E136E22BE1BEF0CF0225006E12104CD
:10182800D8B019EF0CF01BEF0CF029EF0CF0000EFC
:10183800226E000E216E000E106E000E116E000E4C
:10184800126E000E136E000E206E21C027F027A026
:1018580030EF0CF032EF0CF035EF0CF0128E36EF63
:101868000CF0129ED8902730136EECEF0AF012009D
:101878009FC0D9FFA0C0DAFFDECFF6FFDDCFF7FFAC
:101888000800F550250AD8A44CEF0CF04EEF0CF0E8
:10189800ADEF0DF09FC0D9FFA0C0DAFFDE2A000E21
:1018A800DD22000E596E000E586E58C0F8F05A68C6
:1018B8005B689FC0D9FFA0C0DAFFDECFF6FFDDCF9F
:1018C800F7FF0800F5502E0AD8A46DEF0CF06FEF63
:1018D8000CF084EF0CF09FC0D9FFA0C0DAFFDE2A1D
:1018E800000EDD229FC008F0A0C009F0A1C00AF0D8
:1018F800A2C00BF0D0EC1BF008C05AF009C05BF096
:101908009FC0D9FFA0C0DAFFDECFAAF0DDCFABF0D1
:10191800AAC0F6FFABC0F7FF0800F550640AD8B4B8
:1019280098EF0CF09AEF0CF0A8EF0CF0AAC0F6FFB5
:10193800ABC0F7FF0800F550690AD8A4A6EF0CF071
:10194800A8EF0CF0D7EF0CF0A1C0D9FFA2C0DAFFC6
:10195800DFCFA3F0020EDE26DFCFA4F0000EDD22DB
:10196800A3C0D9FFA4C0DAFFDECFA5F0DDCFA6F073
:10197800010E0001AA25A36F000EAB21A46F9FC022
:10198800D9FFA0C0DAFFA3C0DEFFA4C0DDFF9DC061
:101998001EF09EC01FF0A5C020F0A6C021F0ABEC41
:1019A80015F0C1EF0DF09FC0D9FFA0C0DAFFDECF60
:1019B800AAF0DDCFABF0AAC0F6FFABC0F7FF080076
:1019C800F5CFA9F0F4EF0CF0AA4BAB2B0EEF0DF00E
:1019D8006C0EA96F0EEF0DF0000EA96F0EEF0DF053
:1019E8000001A951A36FA46BA451000AD8B4FFEF5A
:1019F8000CF0F0EF0CF0A3514C0AD8B4E8EF0CF05F
:101A08002A0AD8B4ECEF0CF00A0AD8B4E8EF0CF0C4
:101A1800F0EF0CF0AAC0F6FFABC0F7FF0800F550D6
:101A2800660AD8A41AEF0DF01CEF0DF0A4EF0DF024
:101A380052EF0DF0A1C0D9FFA2C0DAFFDFCFA3F0AB
:101A4800040EDE26DFCFA4F0000EDD22A3C0D9FFEE
:101A5800A4C0DAFFDECFA5F0DECFA6F0DECFA7F078
:101A6800DECFA8F067EF0DF0A1C0D9FFA2C0DAFF62
:101A7800DFCFA3F0040EDE26DFCFA4F0000EDD22B8
:101A8800A3C0D9FFA4C0DAFFDECFA5F0DECFA6F051
:101A9800DECFA7F0DECFA8F067EF0DF0A951A36F56
:101AA800A46BA451000AD8B45CEF0DF067EF0DF0F9
:101AB800A3514C0AD8B438EF0DF0200AD8B41EEF61
:101AC8000DF067EF0DF0010EAA25A36F000EAB21F4
:101AD800A46F9FC0D9FFA0C0DAFFA3C0DEFFA4C0D7
:101AE800DDFF8EEF0DF09DC068F09EC069F0A5C0C7
:101AF8006AF0A6C06BF0A7C06CF0A8C06DF0AAC0D1
:101B0800F6FFABC0F7FF0800F5CF6EF0FDEC00F074
:101B1800C1EF0DF0AAC0F6FFABC0F7FF0800F55003
:101B2800A36FA46BA451000AD8B49DEF0DF0A4EFE5
:101B38000DF0A351660AD8B477EF0DF0A4EF0DF0BD
:101B48009FC0D9FFA0C0DAFFDE2A000EDD22C1EF58
:101B58000DF09FC0D9FFA0C0DAFFDECFF6FFDDCFC2
:101B6800F7FF0800F550036E046A9DC005F09EC09B
:101B780006F06BEC1BF0A4EF0DF01200A3EC20F0C4
:101B8800D90E036EFD0E046E020EF2EC1CF0500E20
:101B9800036EFE0E046E010EF2EC1CF0000E000146
:101BA8007B6F21EE5AF010EE64F0100EDBCFE3FFEE
:101BB800E806FCE2EC51ED11D8A4E5EF0DF0E7EFF3
:101BC8000DF0F8EF0DF0640E026E000E036EDA0EE3
:101BD800046EFD0E056E4EEC21F0640E036E000ED1
:101BE800046E020EF2EC1CF00001F451D8B4FFEFC1
:101BF8000DF001EF0EF019EF0EF0000EF46F010E6C
:101C08007B1B7B51D8B40BEF0EF00DEF0EF014EFE9
:101C18000EF0B180A0820F0151857D8019EF0EF082
:101C2800B190A0920F0151957D900001EB51D8B46D
:101C380020EF0EF022EF0EF033EF0FF07B51D8B407
:101C480028EF0EF02AEF0EF033EF0FF0D890EC35B6
:101C5800D96EED35DA6EF60ED926010EDA22DECF10
:101C680006F0DDCF07F0000E07BEFF0E086E096E06
:101C7800400E026E420E036E0F0E046E000E056ECD
:101C880073EC18F002C075F003C076F004C077F06A
:101C980005C078F075C002F076C003F077C004F094
:101CA80078C005F0020E066E000E076E000E086E74
:101CB800000E096E73EC18F002C0E7F003C0E8F0FC
:101CC800D8900001EC35D96EED35DA6EF80ED926CC
:101CD800010EDA22DECF7CF0DDCF7DF07DBF7DEF17
:101CE8000EF07D5108E17C05D8A07DEF0EF07FEF66
:101CF8000EF08FEF0EF0060E036E400E026E7CC0E3
:101D080004F07DC005F033EC1CF002C0E9F003C01C
:101D1800EAF0D2EF0EF07DBF96EF0EF094EF0EF0E2
:101D2800D2EF0EF0060E036E400E026E7CC004F079
:101D38007DC005F033EC1CF002C0E9F003C0EAF006
:101D4800000E2D6E000E2E6EC00E2F6EBF0E306E62
:101D580020EEE9F0DECF02F0DDCF03F0000E03BE87
:101D6800FF0E046E056E010ED1EC14F002C029F0CE
:101D780003C02AF004C02BF005C02CF05AEC08F080
:101D880029C060F02AC061F02BC062F02CC063F05B
:101D9800F9EC18F060C0E9F061C0EAF0000E2D6EB1
:101DA800000E2E6E800E2F6E410E306E20EEEEF07D
:101DB800DECF02F0DDCF03F0000E03BEFF0E046E8F
:101DC800056E010ED1EC14F002C014F003C015F03A
:101DD80004C016F005C017F020EEECF0DECF02F0DC
:101DE800DDCF03F0000E03BEFF0E046E056E010E7C
:101DF800D1EC14F002C010F003C011F004C012F0CE
:101E080005C013F06FEC0AF010C029F011C02AF0D9
:101E180012C02BF013C02CF05AEC08F029C060F067
:101E28002AC061F02BC062F02CC063F0F9EC18F006
:101E380060C079F061C07AF0640E00017925D96E2E
:101E4800000E7A21DA6EDB0EDF6E640E036E000E72
:101E5800046E020EF2EC1CF0000E0001EB6FF7515D
:101E6800D8B439EF0FF03BEF0FF0DEEF0DF0000EB6
:101E7800F76FB190A0920F0151957D901200C4ECBC
:101E88001FF0C10E036EFF0E046E010EF2EC1CF083
:101E9800D20E036EFF0E046E020EF2EC1CF0000E62
:101EA8000001C66F010EC56F000EC26FC169000E3A
:101EB800C46F010EC36FC351CE5CC451CF58D8A0B4
:101EC80068EF0FF06AEF0FF0C4EF0FF0000ECF6E5F
:101ED800000ECE6EC250830B3009C26EC6512EEC76
:101EE80021F00001C651BA6FBB6BC151BA5DBB513D
:101EF800800ABC6FC251800ABC59D8A086EF0FF087
:101F080088EF0FF08CEF0FF0000EC56F96EF0FF013
:101F1800C651D8A492EF0FF094EF0FF096EF0FF0A0
:101F2800010EC56FC551D8B49CEF0FF09EEF0FF0AE
:101F3800A1EF0FF0C62BAAEF0FF0C551D8A4A7EF59
:101F48000FF0A9EF0FF0AAEF0FF0C607C282C2B2D6
:101F5800B0EF0FF0B2EF0FF0ABEF0FF0F10E0001A2
:101F6800B46FFF0EB56FC350C4CFBAF0BB6BBAC025
:101F7800BBF0BA6BBA11B66FBB51B76FD8EC21F092
:101F8800C250830B1009C26EC282C2B2CEEF0FF0EC
:101F9800D0EF0FF0C9EF0FF0C4500001BA6FC35073
:101FA800BD6FBAC0BEF0000E466E000E476E480EFA
:101FB800486E420E496E000E2D6E000E2E6E4D0EAE
:101FC8002F6E430E306E000E146EC00E156E7F0E0F
:101FD800166E440E176EBDC002F0BEC003F0046A50
:101FE800056A000ED1EC14F002C010F003C011F025
:101FF80004C012F005C013F06FEC0AF010C029F00D
:1020080011C02AF012C02BF013C02CF05AEC08F0C3
:1020180029C042F02AC043F02BC044F02CC045F040
:10202800FAEC05F042C060F043C061F044C062F0D1
:1020380045C063F0F9EC18F060C0C1F061C0C2F0AF
:10204800C250830B1409C26EC282C2B22EEF10F0C6
:1020580030EF10F029EF10F0C4500001BA6FC350F0
:10206800BF6FBAC0C0F0000E466E000E476E200E5D
:10207800486E410E496E000E2D6E180E2E6E1C0E07
:102088002F6E460E306E000E146EC00E156E7F0E4B
:10209800166E440E176EBFC002F0C0C003F0046A8B
:1020A800056A000ED1EC14F002C010F003C011F064
:1020B80004C012F005C013F06FEC0AF010C029F04C
:1020C80011C02AF012C02BF013C02CF05AEC08F003
:1020D80029C042F02AC043F02BC044F02CC045F080
:1020E800FAEC05F042C060F043C061F044C062F011
:1020F80045C063F0F9EC18F060C0C3F061C0C4F0EB
:102108000001F751D8B48BEF10F08DEF10F05FEFAE
:102118000FF0000EF76FCD90C69AC290AB98AC9AAC
:102128001200010E0001E66FC2EC21F0000E000162
:10213800E56F000EE46F3F0EEAEC1EF0FEEC1AF0BD
:102148000001F551D8B4ABEF10F0ADEF10F0C5EFCA
:1021580010F0010EE66FE44BE52BE5BFBDEF10F084
:10216800E55109E1070EE45DD8A0BDEF10F0BFEF1F
:1021780010F0C3EF10F0000EE56F060EE46F000ECE
:10218800F56FF451D8B4CBEF10F0CDEF10F0DFEFCE
:1021980010F0010EE66FE407D8A0E507E5BFD9EF18
:1021A80010F0D7EF10F0DDEF10F0000EE56F000E25
:1021B800E46F000EF46FF651D8B4E5EF10F0E7EFD6
:1021C80010F0E9EF10F0010EE66FE651D8B4EFEF2A
:1021D80010F0F1EF10F0A4EF10F0BAEF11F0F65193
:1021E800D8B4F9EF10F0FBEF10F0FFEF10F0000E8D
:1021F800F66F95EC1CF0E80E036EFE0E046E010EF1
:10220800F2EC1CF0FB0E036EFE0E046E020EF2ECF6
:102218001CF0000E0001E66FA4EF10F0F651D8B4E0
:1022280018EF11F01AEF11F01EEF11F0000EF66F13
:10223800FFEC19F0280E036EFE0E046E010EF2EC90
:102248001CF03C0E036EFE0E046E020EF2EC1CF047
:102258000DEF11F0F651D8B434EF11F036EF11F05C
:102268003AEF11F0000EF66FECEC17F0D50E036E96
:10227800FE0E046E010EF2EC1CF09C0E036EFE0EB8
:10228800046E020EF2EC1CF00DEF11F0F651D8B40A
:1022980050EF11F052EF11F056EF11F0000EF66FFB
:1022A800F3EC13F0C20E036EFE0E046E010EF2EC98
:1022B8001CF0AF0E036EFE0E046E020EF2EC1CF064
:1022C8000DEF11F0F651D8B46CEF11F06EEF11F07C
:1022D80072EF11F0000EF66F43EC0FF0890E036EEB
:1022E800FE0E046E010EF2EC1CF0000E036EFE0EE4
:1022F800046E020EF2EC1CF00DEF11F0F651D8B49A
:1023080088EF11F08AEF11F08EEF11F0000EF66FE2
:1023180075EC16F0760E036EFE0E046E010EF2ECEE
:102328001CF0140E036EFE0E046E020EF2EC1CF08E
:102338000DEF11F0F651D8B4A4EF11F0A6EF11F09B
:10234800AAEF11F0000EF66FC2EC0DF0A90E036EA5
:10235800FD0E046E010EF2EC1CF0D70E036EFD0E9E
:10236800046E020EF2EC1CF00DEF11F0E4C0E2F086
:10237800E5C0E3F0E351000AD8B4C5EF11F0A4EFCB
:1023880010F0E251000AD8B4F3EF10F0010AD8B403
:1023980012EF11F0030AD8B42EEF11F0010AD8B4E5
:1023A8004AEF11F0070AD8B466EF11F0010AD8B461
:1023B80082EF11F0030AD8B49EEF11F0A4EF10F0E9
:1023C800FBEF00F06BC139F06CC13AF06DC13BF026
:1023D8006EC13CF029C039F02AC03AF02BC03BF05E
:1023E8002CC03CF0810E2D6EFF0E2E6E39C02FF0E2
:1023F8003AC030F03BC031F03CC032F0180E0AEF62
:1024080012F0D8903232313230322F32E82E05EFC6
:1024180012F02F502D24376E000E2E20386E38BE45
:102428001FEF12F0385009E1170E375CD8A01FEFE4
:1024380012F021EF12F02BEF12F029C029F02AC078
:102448002AF02BC02BF02CC02CF0EEEF12F038BE87
:1024580030EF12F032EF12F0A2EF12F037C02DF089
:10246800FF0E2E6EFF0E2F6E7F0E306E000E316E39
:102478002D6641EF12F049EF12F03134313230322B
:102488002F322E322D2E3CEF12F02EC033F02FC0FB
:1024980034F030C035F031C036F0335039142D6E79
:1024A80034503A142E6E35503B142F6E36503C146F
:1024B800306E2D502E102F103010D8A466EF12F069
:1024C80068EF12F06AEF12F021EF12F039C02DF028
:1024D8003AC02EF03BC02FF03CC030F0200E7AEF0F
:1024E80012F0D89030322F322E322D32E82E75EF7E
:1024F80012F02D502E102F103010D8B486EF12F095
:1025080088EF12F090EF12F03350392634503A2207
:1025180035503B2236503C22331C2D6E341C2E6E17
:10252800351C2F6E361C306E2D5039162E503A162B
:102538002F503B1630503C16E6EF12F039C02DF004
:102548003AC02EF03BC02FF03CC030F0200EB2EF66
:1025580012F0D89030322F322E322D32E82EADEFD5
:1025680012F02D502E102F103010D8A4BEEF12F0FC
:10257800C0EF12F0CAEF12F0000E396E000E3A6E7C
:10258800000E3B6E000E3C6EE6EF12F0D890393428
:102598002D6E3A342E6E3B342F6E3C34306E2D50F7
:1025A8002E102F103010D8B4DCEF12F0DEEF12F03E
:1025B800E6EF12F0000E396E000E3A6E800E3B6E9A
:1025C800BF0E3C6E39C029F03AC02AF03BC02BF050
:1025D8003CC02CF0120088010800060108003701F1
:1025E80010005D011000880108000601080037018D
:1025F80010005D011000880108000601080037017D
:1026080010005D011000880108000601080037016C
:1026180010005D01100088010800060108004A0149
:1026280010005D01100088010800060108004A0139
:1026380010005D01100088010800060108004A0129
:1026480010005D01100088010800060108004A0119
:1026580010005D0110008801FCFF0601FCFF370136
:1026680010005D0110008801040006010400370114
:1026780010005D0110002601FFFF5D01FCFFE9006D
:10268800FCFF37011000260110005D010400E9007D
:10269800FCFF37011000260110000601FFFF88012A
:1026A800FCFF0601FCFF370110005D0110008801E6
:1026B800040006010400370110005D011000260126
:1026C800FFFF5D01FCFFE900FCFF37011000260158
:1026D80010005D010400E900FCFF3701100026012D
:1026E80010000601FFFF8801FCFF0601FCFF37010F
:1026F80010005D0110008801040006010400370184
:1027080010005D0110002601FEFF5D01FCFFE900DD
:10271800FCFF2601F8FF3701F8FF2601F8FFE90062
:10272800F8FF0601FFFF0B02FEFFD201FEFF0601C4
:10273800FEFF8801FEFF3701FEFF3701FCFF5D0148
:10274800FCFF8801FFFF0B02FEFFD201FEFF06011E
:10275800FEFF8801FEFF3701FEFF3701FCFF26015F
:10276800FCFF0B020800880108009F011000D2013D
:1027780010000B020800880108009F011000D20118
:1027880010000B020800880108009F011000D20108
:1027980010000B020800880108009F011000D201F8
:1027A8001000010004003F031000A40310001704E8
:1027B8000800100308003F031000A40310001704CA
:1027C8000800100310003F031000A40310001704B2
:1027D8000800100308003F031000A4031000AAEC2F
:1027E80021F0010E0101F56FC282C2B2FEEF13F0B3
:1027F80000EF14F0F9EF13F00101F551D8B407EF29
:1028080014F009EF14F04CEF14F0C4500001CA6F33
:10281800C3500101F16FCAC0F2F1000E146EC00E70
:10282800156E7F0E166E440E176EF1C102F0F2C1DE
:1028380003F0046A056A000ED1EC14F002C010F02F
:1028480003C011F004C012F005C013F06FEC0AF0D9
:1028580010C029F011C02AF012C02BF013C02CF0C0
:10286800330E2D6E330E2E6E530E2F6E400E306EBD
:102878005AEC08F029C0E9F12AC0EAF12BC0EBF1C3
:102888002CC0ECF1C250830B1409C26E8DEF14F00A
:10289800C4500001CA6FC3500101F36FCAC0F4F1FC
:1028A800000E146EC00E156E7F0E166E440E176E57
:1028B800F3C102F0F4C103F0046A056A000ED1EC1A
:1028C80014F002C010F003C011F004C012F005C0EB
:1028D80013F06FEC0AF010C029F011C02AF012C0F2
:1028E8002BF013C02CF0330E2D6E330E2E6E530EBC
:1028F8002F6E400E306E5AEC08F029C0EDF12AC058
:10290800EEF12BC0EFF12CC0F0F1C250830B10098F
:10291800C26E010E0101F51BC70E0001B46F010E56
:10292800B56F8C0EB66FFF0EB76FE9C1B8F0EAC18C
:10293800B9F0EBC1BAF0ECC1BBF053EC20F0D80E03
:102948000001B46F010EB56F9E0EB66FFF0EB76F24
:10295800EDC1B8F0EEC1B9F0EFC1BAF0F0C1BBF00B
:1029680053EC20F0C70E036E010E046E010EF2EC5C
:102978001CF0D80E036E010E046E020EF2EC1CF071
:102988000001F751D8B4CBEF14F0CDEF14F0F8EF05
:1029980013F0C290000EF76F12000A6E0A50D8B4F6
:1029A800D8EF14F0DAEF14F0FCEF14F005BEE1EF05
:1029B80014F0DFEF14F0FCEF14F002C006F003C0CF
:1029C80007F004C008F005C009F0061E071E081E1F
:1029D800091E062A000E07220822092206C00CF04A
:1029E80007C00DF008C00EF009C00FF004EF15F095
:1029F80002C00CF003C00DF004C00EF005C00FF0CB
:102A08000250031004100510D8A40DEF15F00FEFB5
:102A180015F019EF15F0000E026E000E036E000E91
:102A2800046E000E056EAAEF15F0960E0B6E23EFDE
:102A380015F00B2AD8900F320E320D320C32000EE0
:102A48000C14066E000E0D14076E000E0E14086EA0
:102A5800FE0E0F14096E0650071008100910D8A4AE
:102A680038EF15F03AEF15F01DEF15F048EF15F0B7
:102A78000B2A010E0C26000E0D220E220F22D890D2
:102A88000F320E320D320C32000E0C14066E000E90
:102A98000D14076E000E0E14086EFF0E0F14096E4B
:102AA8000650071008100910D8A45DEF15F05FEF65
:102AB80015F03CEF15F067EF15F00B06D8900C36C3
:102AC8000D360E360F360EBE6CEF15F06EEF15F0A4
:102AD80076EF15F0020E0B6074EF15F076EF15F037
:102AE80061EF15F00BB07BEF15F07DEF15F07EEF81
:102AF80015F00E9ED8900B320BC006F0076A086AD4
:102B0800096A06C009F0086A076A066A06500C12C4
:102B180007500D1208500E1209500F120A50D8B45F
:102B280098EF15F09AEF15F0A2EF15F005BEA1EF9A
:102B380015F09FEF15F0A2EF15F00F8E0CC002F004
:102B48000DC003F00EC004F00FC005F0120021BE46
:102B5800B0EF15F0B3EF15F0010EB4EF15F0000E5D
:102B68002A6E2A50D8B4BBEF15F0BDEF15F0C1EFAF
:102B780015F0206C211ED8B0212A5BBEC8EF15F0D5
:102B8800C6EF15F0CEEF15F0000E256E010E246E7F
:102B9800D2EF15F05AC024F05BC025F058C026F0DB
:102BA80059C027F02A50D8B4DCEF15F0DEEF15F045
:102BB800F5EF15F02606D8A027062A50D8A4E7EF87
:102BC80015F0E9EF15F0EFEF15F0000E236E2B0E60
:102BD800226EF3EF15F0000E236E2D0E226E22C02A
:102BE8002AF0000E296E4F0E286E000E0101C26FEA
:102BF8002EEF16F02806D8A02906730E2824D96EC1
:102C0800010E2920DA6E20C002F021C003F0000E68
:102C1800056E0A0E046E4BEC1DF002C008F003C0EE
:102C280009F06EEC21F00850300FDF6E2406D8A0B2
:102C380025062606D8A0270620C002F021C003F0EA
:102C4800000E056E0A0E046E33EC1CF002C020F074
:102C580003C021F029BE39EF16F0295008E12804F5
:102C6800D8A039EF16F03BEF16F051EF16F02050D0
:102C78002110D8A442EF16F044EF16F0FEEF15F03D
:102C880025BE51EF16F0255006E12404D8B04FEFC9
:102C980016F051EF16F0FEEF15F02A50D8B457EFA2
:102CA80016F059EF16F064EF16F02806D8A029069A
:102CB800730E2824D96E010E2920DA6E2AC0DFFF90
:102CC8001EC013F01FC014F0730E2824156E010ED9
:102CD8002920166E26C017F027C018F037EC1EF012
:102CE800120029EC22F0010E0001E16F680E036E5C
:102CF800FF0E046E010EF2EC1CF07A0E036EFF0E4E
:102D0800046E020EF2EC1CF00001F451D8B48FEFFF
:102D180016F091EF16F0CCEF16F0E151D8B497EF1A
:102D280016F099EF16F0CCEF16F0000EE16F22ECDA
:102D38001FF0070E0E16000E0F16030E0E240001CC
:102D4800DF6F000E0F20E06FCA0EB46F000EB56F74
:102D5800C20EB66FFD0EB76FDFC0B8F0E0C0B9F0B5
:102D680053EC20F0630E036EFE0E046E010EF2ECBF
:102D78001CF0CA0E036E000E046E020EF2EC1CF07C
:102D8800CD80000E0001DE6F000EDD6F000EF46FC7
:102D9800F451D8B4D2EF16F0D4EF16F013EF17F0C1
:102DA800E151D8A4DAEF16F0DCEF16F013EF17F0C4
:102DB800CD90000ECF6E000ECE6EDFC002F0E0C0E8
:102DC80003F0030E056EE80E046EECEC21F0000132
:102DD800DD51025CDB6FDE510358DC6FCA0EB46F45
:102DE800000EB56FE30EB66FFF0EB76FDBC0B8F01D
:102DF800DCC0B9F053EC20F0560E036EFF0E046EE3
:102E0800020EF2EC1CF0CA0E036E000E046E010EE8
:102E1800F2EC1CF0010E0001E16F000EF46FE80EF9
:102E2800CE5C030ECF58D8A01CEF17F01EEF17F09A
:102E380026EF17F0000ECF6E000ECE6EDD4BDE2BA8
:102E4800000EE16FF751D8B42CEF17F02EEF17F002
:102E580088EF16F0000EF76F120002C00CF003C0E6
:102E68000DF006500710D8A43CEF17F03EEF17F00E
:102E780040EF17F0EBEF17F00CC0D9FF0DC0DAFFE9
:102E880004C0DFFF06500C24086E07500D20096EA1
:102E9800FF0E0824D96EFF0E0920DA6E04C0DFFF8A
:102EA800075007E1030E065CD8B05DEF17F05FEF3F
:102EB80017F061EF17F0EBEF17F020EE01F00C5070
:102EC800D9260D50DA2204C0DFFF20EE02F00C50A4
:102ED800D9260D50DA2204C0DFFF06500C24086EF4
:102EE80007500D20096EFE0E0824D96EFF0E09202A
:102EF800DA6E04C0DFFF06500C24086E07500D2060
:102F0800096EFD0E0824D96EFF0E0920DA6E04C082
:102F1800DFFF075007E1070E065CD8B096EF17F001
:102F280098EF17F09AEF17F0EBEF17F020EE03F099
:102F38000C50D9260D50DA2204C0DFFF06500C24AD
:102F4800086E07500D20096EFC0E0824D96EFF0E7E
:102F58000920DA6E04C0DFFF075007E1090E065C9E
:102F6800D8B0B9EF17F0BBEF17F0BDEF17F0EBEFE4
:102F780017F00CC008F00DC009F0081E091E084A19
:102F8800092A030E08140A6E0B6A0A500C260B5005
:102F98000D220A50065E0B50075AFC0E0616FF0E4D
:102FA8000716E2EF17F00CC0D9FF0DC0DAFF04C016
:102FB800DFFF0606D8A007060C4A0D2A06500710A0
:102FC800D8A4E9EF17F0EBEF17F0D7EF17F01200DE
:102FD8000DEC21F0000E0001DE6F000EDD6F000E1B
:102FE800DC6FC70EDB6FEC0E036EFD0E046E010E78
:102FF800F2EC1CF0CA0E0001B46F000EB56FB00EF3
:10300800B66FFF0EB76F000EB96F000EB86F53ECB6
:1030180020F0CA0E036E000E046E020EF2EC1CF0D5
:103028000001F551D8B41BEF18F01DEF18F063EF4D
:1030380018F0000EF56F140EDD25DD6F000EDE2191
:10304800DE6FD90EDB25DB6FFF0EDC21DC6FDEBF08
:1030580037EF18F0DE5109E1650EDD5DD8A037EFD6
:1030680018F039EF18F03DEF18F0000EDE6F000E83
:10307800DD6FDCBF44EF18F042EF18F04CEF18F0AA
:10308800C70EBE6E000EDC6FC70EDB6F4EEF18F07A
:10309800DBC0BEFFCA0EB46F000EB56FB00EB66FC0
:1030A800FF0EB76FDDC0B8F0DEC0B9F053EC20F00A
:1030B800CA0E036E000E046E020EF2EC1CF0000144
:1030C800F751D8B46AEF18F06CEF18F014EF18F055
:1030D800000EF76F959AB9920F0151951200000EE4
:1030E8000B6E09BE7CEF18F07AEF18F086EF18F037
:1030F800091E081E071E066C000E07220822092258
:10310800010E0B6E05BE8DEF18F08BEF18F097EFE0
:1031180018F0051E041E031E026C000E0322042272
:103128000522010E0B1A000E0C6E000E0D6E000E1D
:103138000E6E000E0F6E0650071008100910D8B456
:10314800A8EF18F0AAEF18F0E0EF18F0010E0A6ED9
:10315800B4EF18F0D89006360736083609360A2A2A
:1031680009AEB9EF18F0BBEF18F0AEEF18F0D89031
:103178000C360D360E360F360650025C07500358D3
:103188000850045809500558D8A0CDEF18F0CFEFD3
:1031980018F0D8EF18F00650025E0750035A08508E
:1031A800045A0950055A0C80D8900932083207325F
:1031B80006320A2EBBEF18F00B50D8B4E6EF18F021
:1031C800E8EF18F0F0EF18F00F1E0E1E0D1E0C6C35
:1031D800000E0D220E220F220CC002F00DC003F0CB
:1031E8000EC004F00FC005F012000001623563350F
:1031F800576E5750D8A403EF19F005EF19F00FEFE9
:1032080019F0000E606F000E616F000E626F000E05
:10321800636F7CEF19F060C052F061C053F062C078
:1032280054F063C055F0200E1FEF19F0D8905532B6
:10323800543253325232E82E1AEF19F05250566E69
:10324800628FFF0E6017FF0E6117FF0E6217000EE8
:103258006317960E575E57BE36EF19F034EF19F024
:103268004CEF19F05750800A970FD8B03EEF19F07D
:1032780040EF19F042EF19F005EF19F0D8906333D9
:10328800623361336033573E42EF19F064EF19F04F
:103298001F0E576452EF19F054EF19F05CEF19F054
:1032A80005EF19F0D89060376137623763375706F2
:1032B8005750D8A462EF19F064EF19F056EF19F0DF
:1032C8005650D8B46AEF19F06CEF19F074EF19F092
:1032D800631F621F611F606D000E612362236323F9
:1032E80060C060F061C061F062C062F063C063F00A
:1032F8001200000E42144A6E000E43144B6E800EEC
:1033080044144C6E7F0E45144D6E4A504B104C10B1
:103318004D10D8A492EF19F094EF19F09CEF19F022
:10332800000E426E000E436E000E446E000E456E97
:10333800000E46144A6E000E47144B6E800E481459
:103348004C6E7F0E49144D6E4A504B104C104D1068
:10335800D8A4B1EF19F0B3EF19F0BBEF19F0000ED4
:10336800466E000E476E000E486E000E496E45AE62
:10337800C0EF19F0C2EF19F0CBEF19F0426C431E01
:10338800D8B0432A441ED8B0442A800E455649AEC8
:10339800D0EF19F0D2EF19F0DBEF19F0466C471EA9
:1033A800D8B0472A481ED8B0482A800E4956000E81
:1033B800421A000E431A000E441A800E451A000ED7
:1033C800461A000E471A000E481A800E491A46502F
:1033D800425C475043584850445849504558D8B023
:1033E800F8EF19F0FAEF19F0FDEF19F0D890FEEFA9
:1033F80019F0D880120012EC22F00E0E036EFF0EA8
:10340800046E010EF2EC1CF0200E036EFF0E046E2B
:10341800020EF2EC1CF0000E0001D96F000ED86FFE
:1034280021EE00F010EE60F0590EDBCFE3FFE80666
:10343800FCE2600E036E000E046E000E066E5A0E5D
:10344800056EAFEC1EF09EAA2CEF1AF02EEF1AF0C4
:1034580050EF1AF00A0EAE18D8A435EF1AF037EF6D
:103468001AF046EF1AF0BA0E0001D925D96EDA6AB9
:10347800000EDA220A0EDF6E000ED96F010ED86F29
:1034880050EF1AF0BA0E0001D925D96EDA6A000E8B
:10349800DA22AECFDFFFD92B0001D851D8B457EFCD
:1034A8001AF059EF1AF074EF1AF0BA0E036E000E04
:1034B800046E000E066E1E0E056EF8EC1DF0BA0EB8
:1034C800026E000E036E000E056E000E046E000EF6
:1034D800076E1E0E066E31EC17F0000E0001D86F55
:1034E800F751D8B47AEF1AF07CEF1AF027EF1AF0F8
:1034F800000EF76F12006FC10CF070C10DF071C1B2
:103508000EF072C10FF002C00CF003C00DF004C041
:103518000EF005C00FF00CC006F00DC007F00EC08D
:1035280008F00FC009F0180E9FEF1AF0D890093272
:10353800083207320632E82E9AEF1AF006500A6E61
:103548000B6A0A500B10D8A4ACEF1AF0AEEF1AF0C1
:10355800CEEF1AF0D8900C34066E0D34076E0E3488
:10356800086E0F34096E0650071008100910D8A409
:10357800C0EF1AF0C2EF1AF0C8EF1AF0000E036E8F
:10358800020E026EFDEF1AF0000E036E030E026EBD
:10359800FDEF1AF00A280B10D8A4D5EF1AF0D7EFD0
:1035A8001AF0F9EF1AF00CC006F00DC007F00EC0C3
:1035B80008F00FC009F0090ED8900636073608360D
:1035C8000936E82EE0EF1AF0065007100810091027
:1035D800D8B4F1EF1AF0F4EF1AF0010EF5EF1AF083
:1035E800000E026E036AFDEF1AF0000E036E040E61
:1035F800026E12000F013B913B9395809582929049
:1036080089806C50F00B08096C6E130E6E6E6C8A14
:10361800340E036EF20EE82EFED7032EFCD76B8015
:103628006BB019EF1BF01BEF1BF014EF1BF0A49EFF
:103638007C0EFFEC21F0800EFFEC21F0380EFFEC41
:1036480021F0800EFFEC21F0390EFFEC21F0800E06
:10365800FFEC21F0170EFFEC21F0800EFFEC21F0BB
:103668007A0EFFEC21F0800EFFEC21F05E0EFFECED
:1036780021F0800EFFEC21F06B0EFFEC21F0800EA4
:10368800FFEC21F00C0EFFEC21F0800EFFEC21F096
:10369800010EFFEC21F0800EFFEC21F0060EFFEC8E
:1036A80021F0800EFFEC21F0020EFFEC21F06B847C
:1036B8006BB461EF1BF063EF1BF05CEF1BF0340E93
:1036C800036EF20EE82EFED7032EFCD7120005502B
:1036D8000610D8B472EF1BF074EF1BF07DEF1BF0EF
:1036E80005500610D8A47BEF1BF07DEF1BF082EF8E
:1036F8001BF003501EEC22F0CFEF1BF020EE0AF077
:103708000550D9260650DA22DE50DE10D8B48FEFE5
:103718001BF091EF1BF0ACEF1BF020EE0AF0055008
:10372800D9260650DA2210EE03F00550E12606509D
:10373800E222DE50E65CE650800A0B6EDE50800A1C
:103748000B58D8B0AAEF1BF0ACEF1BF0CFEF1BF073
:1037580020EE03F00550D9260650DA22DECF07F016
:10376800DDCF08F005C0D9FF06C0DAFFDECF09F0CB
:10377800DDCF0AF007500924D96E08500A20DA6E06
:1037880003C0DFFF20EE03F00550D9260650DA22E9
:10379800DE2A000EDD221200000E106E000E0F6EE3
:1037A80008C0D9FF09C0DAFFDECFF6FFDDCFF7FF8B
:1037B8000800F5502A0AD8A4E4EF1BF0E6EF1BF046
:1037C8001AEF1CF008C0D9FF09C0DAFFDE2A000E84
:1037D800DD220AC0D9FF0BC0DAFFDFCF0CF0020EE2
:1037E800DE26DFCF0DF0000EDD220CC0D9FF0DC0A4
:1037F800DAFFDECF0FF0DDCF10F02EEF1CF00FC098
:1038080002F010C003F0000E056E0A0E046EECEC18
:1038180021F00E5002240F6E000E0320106E08C017
:10382800D9FF09C0DAFFDE2A000EDD2208C0D9FF61
:1038380009C0DAFFDECFF6FFDDCFF7FF0800F5504D
:10384800D00F0E6E090E0E642CEF1CF02EEF1CF03C
:1038580003EF1CF00FC008F010C009F01200000EB2
:10386800076E05BE3CEF1CF03AEF1CF042EF1CF06F
:10387800046C051ED8B0052A010E076E03BE49EF79
:103888001CF047EF1CF04FEF1CF0026C031ED8B081
:10389800032A010E071A000E096E000E086E045066
:1038A8000510D8B45AEF1CF05CEF1CF084EF1CF044
:1038B800010E066E64EF1CF0D89004360536062A11
:1038C80005AE69EF1CF06BEF1CF060EF1CF0D890B0
:1038D800083609360450025C05500358D8A077EF23
:1038E8001CF079EF1CF07EEF1CF00450025E0550CE
:1038F800035A0880D89005320432062E6BEF1CF06C
:103908000750D8B48AEF1CF08CEF1CF090EF1CF035
:10391800086C091ED8B0092A08C002F009C003F0D3
:103928001200440E036EFF0E046E010EF2EC1CF042
:10393800320E036EFF0E046E020EF2EC1CF03F0E08
:103948000D6E3F0EEAEC1EF0000E0C6E000E0B6EB4
:103958000001F551D8B4B3EF1CF0B5EF1CF0E4EF5B
:103968001CF00CBEC1EF1CF00C5009E1060E0B5CFC
:10397800D8A0C1EF1CF0C3EF1CF0CEEF1CF0000E76
:103988000C6E000E0B6E3F0E0D6E3F0EEAEC1EF035
:10399800E1EF1CF00BC009F0010E0A6E092AD7EFFF
:1039A8001CF0D8900A36092ED5EF1CF00A500D1AD3
:1039B8000D50EAEC1EF00B4A0C2A000E0001F56FC0
:1039C800F751D8B4EAEF1CF0ECEF1CF0ACEF1CF0A8
:1039D800000EF76F3F0EEAEC1EF01200076E6B80C8
:1039E8006BB0F9EF1CF0FBEF1CF0F4EF1CF0A49E99
:1039F8007C0EFFEC21F0800EFFEC21F00704D8A428
:103A080008EF1DF00AEF1DF00FEF1DF0800EFFEC20
:103A180021F01BEF1DF0020E0718D8A416EF1DF0B9
:103A280018EF1DF01BEF1DF0C00EFFEC21F0400E4B
:103A3800FFEC21F0000E086E08500324056E000EFE
:103A48000420066E05C0F6FF06C0F7FF000EF86EEC
:103A58000F0EF76403D00800F55005D0F6CFE1FF4C
:103A6800F7CFE2FFE750FFEC21F0082A0F0E0864B9
:103A780040EF1DF042EF1DF020EF1DF06B846BB49A
:103A880048EF1DF04AEF1DF043EF1DF01200000E45
:103A9800076E03BE54EF1DF052EF1DF05AEF1DF0F4
:103AA800026C031ED8B0032A010E076E05BE61EF33
:103AB8001DF05FEF1DF065EF1DF0046C051ED8B01A
:103AC800052A04500510D8B46CEF1DF06EEF1DF0F8
:103AD80092EF1DF0010E066E76EF1DF0D8900436B9
:103AE8000536062A05AE7BEF1DF07DEF1DF072EF5F
:103AF8001DF00450025C05500358D8A086EF1DF055
:103B080088EF1DF08CEF1DF00450025E0550035A3B
:103B1800D89005320432062E7DEF1DF00750D8B438
:103B280098EF1DF09AEF1DF09EEF1DF0026C031E3A
:103B3800D8B0032A02C002F003C003F01200000E3E
:103B480002140A6E000E03140B6E800E04140C6E21
:103B58007F0E05140D6E0A500B100C100D10D8A412
:103B6800B8EF1DF0BAEF1DF0C2EF1DF0000E026EA7
:103B7800000E036E000E046E000E056E000E061495
:103B88000A6E000E07140B6E800E08140C6E7F0E62
:103B980009140D6E0A500B100C100D10D8A4D7EF95
:103BA8001DF0D9EF1DF0E1EF1DF0000E066E000EBE
:103BB800076E000E086E000E096E065002180FE11F
:103BC800075003180CE10850041809E109500518BA
:103BD800D8B4F1EF1DF0F3EF1DF0F6EF1DF0D8901B
:103BE800F7EF1DF0D8801200000E086E05C009F02E
:103BF80006C00AF00ABE05EF1EF003EF1EF007EF3D
:103C08001EF030EF1EF009500324D96E0A5004202C
:103C1800DA6E0A0EDE18D8A414EF1EF016EF1EF0A6
:103C28001AEF1EF0010E086E2BEF1EF00850D8B4E4
:103C380020EF1EF022EF1EF02BEF1EF00950032498
:103C4800D96E0A500420DA6EDF501EEC22F0090605
:103C5800D8A00A06FEEF1DF00A0E1EEC22F00A0E8E
:103C68001EEC22F0120018BE3CEF1EF03EEF1EF0D4
:103C780044EF1EF017C01CF018C01DF048EF1EF0EE
:103C8800000E1D6E000E1C6E000E1B6E000E1A6ECE
:103C98005AEF1EF0000E046E200E036E13C005F0DE
:103CA80014C006F06BEC1BF01A4A1B2A1C501A5C55
:103CB8001B50800A196E1D50800A1958D8A067EF4A
:103CC8001EF069EF1EF04EEF1EF015C00CF016C086
:103CD8000DF013C00EF014C00FF0EBEC20F0120042
:103CE800DE0EF66E250EF76E000EF86E01EEF6F09B
:103CF80012EE08F00900F5CFEEFFE550E150FAE1C9
:103D0800E250F8E1B20EF66E3E0EF76E000EF86E57
:103D180001EE00F010EE6BF00900F5CFEEFFE55074
:103D2800E150FAE101EE6BF05C0EEE6AE806FDE1A7
:103D380000EEE7F0120EEE6AE806FDE15D6A5C6AE5
:103D48005B6A5A6A596A586A5E905E92000EF86E0B
:103D5800000195EF10F0000E096E000E086EDAEF04
:103D68001EF008500324D96E09500420DA6E0A0E9A
:103D7800DE18D8A4C2EF1EF0C4EF1EF0CFEF1EF07D
:103D880008500324D96E09500420DA6EDF501EEC67
:103D980022F0E9EF1EF008500324D96E09500420E0
:103DA800DA6EDF501EEC22F0084A092A0850055C3A
:103DB8000650800A076E0950800A0758D8B0E7EF06
:103DC8001EF0E9EF1EF0B5EF1EF01200026E02B011
:103DD800F0EF1EF0F3EF1EF08C84F4EF1EF08C94DD
:103DE80002B2F9EF1EF0FCEF1EF08C86FDEF1EF01C
:103DF8008C9602B402EF1FF005EF1FF08B8806EFD8
:103E08001FF08B9802B60BEF1FF00EEF1FF08C8897
:103E18000FEF1FF08C9802B814EF1FF017EF1FF088
:103E28008C8A18EF1FF08C9A02BA1DEF1FF020EF52
:103E38001FF08C8C21EF1FF08C9C1200C3C102F084
:103E4800C4C103F0C5C104F0C6C105F02D0E066E4D
:103E58007F0E076E950E086E4C0E096E8FEC1FF0E4
:103E6800010E02240101C36F000E0320C46F000E6F
:103E78000420C56F000E0520C66FC3C110F0C4C171
:103E880011F0C5C112F0C6C113F0120E51EF1FF0A8
:103E9800D8901332123211321032E82E4CEF1FF044
:103EA80010C00EF011C00FF01200506572696665FF
:103EB800726965205541525420706F736C65207A81
:103EC80070726176752C206F206D6178696D616CF8
:103ED8006E692064656C6365203330207A6E616B8F
:103EE800752C207A7065742076206F7061636E651A
:103EF8006D20706F726164692E0A00000000000076
:103F08000000000020202020202020202020202029
:053F1800202020202004
:103F1E00000E0A6E000E0B6E000E0C6E000E0D6E75
:103F2E0002A09CEF1FF09EEF1FF0A6EF1FF00650B1
:103F3E000A2607500B2208500C2209500D22D89049
:103F4E000636073608360936D89005320432033263
:103F5E0002320250031004100510D8A4B9EF1FF05E
:103F6E00BBEF1FF097EF1FF00AC002F00BC003F07B
:103F7E000CC004F00DC005F01200000E0F013A6FD8
:103F8E009496949A93968A86C650F00B0A09C66E3A
:103F9E00C70EC86EC78CC68A3981388B3C81928A0F
:103FAE009680C050F80B0609C06EC250830B1009E4
:103FBE00C26EC08EC050C70B3009C06EC280330EA9
:103FCE00AF6E948C948EAB8EAB88AC8A3F0ECD16B2
:103FDE00300ECD12CD80000ECF6E000ECE6E1200C2
:103FEE0005BE06EF20F005500410031006E1020492
:103FFE00D8B004EF20F006EF20F021EF20F002C041
:10400E0006F003C007F004C008F005C009F0061E54
:10401E00071E081E091E062A000E07220822092264
:10402E0006C002F007C003F008C004F009C005F096
:10403E0029EF20F002C002F003C003F004C004F028
:10404E0005C005F01200AEC0B2F0AFC0B3F03FEF46
:10405E0020F0ACC09DF0ADC09EF0B20E00019F6F7F
:10406E00000EA06FB0C0A1F0B1C0A2F03CEC0CF0FD
:10407E00B2C0F6FFB3C0F7FF0800F5500009D8A490
:10408E004BEF20F04DEF20F030EF20F0000E00014E
:10409E00AD6F000EAC6F1200B80E0001BC6F000EBB
:1040AE00BD6FB4C0BEF0B5C0BFF0000EC26F000E43
:1040BE00C16F000EC96F000EC86FBE0EAC6F000E42
:1040CE00AD6FB6C0AEF0B7C0AFF0BC0EB06F000EA5
:1040DE00B16F2AEC20F00001C151B425D96EC25146
:1040EE00B521DA6EDF6A120004C00AF005C00BF0CB
:1040FE0002C008F003C009F095EF20F00AC0D9FF06
:10410E000BC0DAFFDF500C6E0A4A0B2A08C0D9FF2B
:10411E0009C0DAFF0CC0DFFF084A092A0606D8A03C
:10412E000706062806E10728D8A4A0EF20F0A2EF84
:10413E0020F085EF20F012000F015151FC0B010908
:10414E00516F5151870B3809516F51957D907E906B
:10415E00FA0E526F3F0EB116300EB112B190A09200
:10416E00A192F28CF28E000E0001ED6F000EEC6F3C
:10417E00010EEB6F010EEF6F040EEE6F939A1200AD
:10418E00000E0001641B000E651B000E661B800EE8
:10419E00671B60C042F061C043F062C044F063C070
:1041AE0045F064C046F065C047F066C048F067C091
:1041BE0049F0FAEC05F042C060F043C061F044C033
:1041CE0062F045C063F01200000E126E000E116E0A
:1041DE00FCEF20F010C003F0046A0EC005F00FC013
:1041EE0006F06BEC1BF0114A122A11500C24D96EFA
:1041FE0012500D20DA6EDF50106E1050D8A40AEF58
:10420E0021F00CEF21F0F1EF20F01200958AB99019
:10421E00B9820F014951FC0B0109496FC70E526F4C
:10422E00BD50F00B0C09BD6E3F0EBD16C70EBE6E17
:10423E005151FC0B0109516F7E9051857EA02AEFE2
:10424E0021F02CEF21F025EF21F0959A1200046E4B
:10425E0004380F0B3009026E0438F00BF00B036EAE
:10426E008A969E9602C0C9FF9EA640EF21F042EFAD
:10427E0021F03BEF21F09E9603C0C9FF9EA64AEFA8
:10428E0021F04CEF21F045EF21F08A86120004C098
:10429E0006F005C007F002C008F003C009F006C022
:1042AE00F6FF07C0F7FF064A072A08C0D9FF09C064
:1042BE00DAFF084A092A0800F5CFDFFFDF50D8A43D
:1042CE006BEF21F06DEF21F056EF21F0120009BED9
:1042DE007BEF21F0095006E10804D8B079EF21F008
:1042EE007BEF21F089EF21F008C00AF009C00BF036
:1042FE000A1E0B1E0A4A0B2A0AC008F00BC009F050
:10430E008DEF21F008C008F009C009F0120002502C
:10431E00031004100510D8B497EF21F099EF21F097
:10432E00A1EF21F0000E021A000E031A000E041A5D
:10433E00800E051A02C002F003C003F004C004F0A0
:10434E0005C005F012000F01388B3C81928A9680D1
:10435E00C050F80B0209C06EC050C70B3009C06EBA
:10436E00C08EF30EC116FC0EC116C250830B10097F
:10437E00C26EC2801200830E956E9498000E0F01CD
:10438E00386F9480928892869284030EBA12780EB9
:10439E00BA12FA0EBB6E9E929D82F28CBA84F28E87
:1043AE001200B60E0001B86F000EB96F000EAC6FA2
:1043BE00000EAD6FB4C0AEF0B5C0AFF0B80EB06FBA
:1043CE00000EB16F2AEC20F0120002500402F3CF5F
:1043DE0006F0F4CF07F002500502F3500726035003
:1043EE000402F350072606C002F007C003F01200C5
:1043FE00026E02C06FFF6DB007EF22F009EF22F0E0
:10440E0002EF22F0A4AE0EEF22F010EF22F009EF31
:10441E0022F0A49E1200000E0F013A6F948C948E1F
:10442E00190EAF6EAC98AC8AAB8EAB881200026ED2
:10443E009EA824EF22F026EF22F01FEF22F002C0FA
:10444E00ADFF12003F0ECD16300ECD12CD90000EE8
:08445E00CF6E000ECE6E1200BD
:10FDA800003E2037202D20505245485241564143AD
:10FDB800202020202020202020002020202020205B
:10FDC80020256420732020202020202020200020AF
:10FDD800202020202020202020202020202020201B
:10FDE8002020200042544E322070726570696E6186
:10FDF800206A617320202000202036202D204741D2
:10FE08004D45202020202020202020003E20362084
:10FE18002D2047414D452020202020202020200053
:10FE2800202031202D204750494F202020202020FD
:10FE3800202020003E2032202D20554152542020E1
:10FE4800202020202020200042544E313A205354B4
:10FE58004152542F53544F502020005A6D61636B08
:10FE68006E692042544E3120706F3A2020002020C5
:10FE780035202D20444143202020202020202020F0
:10FE8800003E2035202D20444143202020202020E2
:10FE980020202000202034202D20414443202020F1
:10FEA800202020202020003E2034202D20414443C3
:10FEB80020202020202020202000202033202D203A
:10FEC800504D57202020202020202020003E203385
:10FED800202D20504D572020202020202020200099
:10FEE8003E2031202D204750494F2020202020201F
:10FEF800202000202032202D20554152542020203F
:10FF0800202020202000202020202020554152544D
:10FF18002020202020202000204F746F63656E6908
:10FF2800207A7072617679202000537469736B6E41
:10FF3800692042544E32202020202000526F7A73CC
:10FF48007665636F76616E69204C454420004E6F7C
:10FF58007661206872612042544E312020202000B2
:10FF68002020486164616E692063617375202020D8
:10FF780020002020537469736B6E692042544E31FF
:10FF880020202000504F54313A2020252E31662061
:10FF9800562020202000504F54323A2020252E3160
:10FFA80066205620202020004A61733A20202564CC
:10FFB800207065726320202000202054726F6A75BB
:10FFC80068656C6E696B20202000504F54313A41AF
:10FFD8006D702C504F54323A487A00526F7A6469E7
:10FFE8006C3A202564206D730025642C200D00696F
:08FFF8006E66006E616E0000F0
:020000040020DA
:08000000FFFFFFFFFFFFFFFF00
:020000040030CA
:0E000000FF331F3CFFBF85FF0FC00FE00F4016
:00000001FF
